:100000000C9434000C9449000C9449000C94490061
:100010000C9449000C9449000C9449000C9449003C
:100020000C9449000C9449000C9449000C9449002C
:100030000C9449000C9449000C9449000C9449001C
:100040000C9449000C9449000C9449000C9449000C
:100050000C9449000C9449000C9449000C944900FC
:100060000C9449000C94490011241FBECFEFD8E036
:10007000DEBFCDBF11E0A0E0B1E0E0E7F2E002C0FA
:1000800005900D92A031B107D9F70E94E3000C94BE
:1000900036010C940000AB01883090F421E030E090
:1000A000B90102C0660F771F8A95E2F7CB019AB1BA
:1000B000452B21F4809589238AB90895892BFCCF9B
:1000C00028EF280F263078F481E090E001C0880FF7
:1000D0002A95EAF794B1672B21F48095892384B996
:1000E0000895892BFCCF22EF280F81E090E001C01A
:1000F000880F2A95EAF797B1672B21F48095892319
:1001000087B90895892BFCCFAB01883090F421E0AA
:1001100030E0B90102C0660F771F8A95E2F7CB0184
:100120009BB1452B21F4809589238BB90895892BA8
:10013000FCCF28EF280F263078F481E090E001C052
:10014000880F2A95EAF795B1672B21F480958923CA
:1001500085B90895892BFCCF22EF280F81E090E02C
:1001600001C0880F2A95EAF798B1672B21F4809592
:10017000892388B90895892BFCCF9C0150E040E089
:1001800060E472E48FE090E00E94F50021503109B4
:100190003093C5002093C400E1ECF0E080818861D9
:1001A0008083E2ECF0E08081866080830895FC012A
:1001B0008191811101C008959091C00095FFFCCFFD
:1001C0008093C600F5CF80E895E20E94BD0080E0F4
:1001D00091E00E94D7002FEF83ED90E32150804003
:1001E0009040E1F700C00000F2CF052E97FB1EF40F
:1001F00000940E940C0157FD07D00E94140107FCD7
:1002000003D04EF40C940C015095409530952195F7
:100210003F4F4F4F5F4F0895909580957095619532
:100220007F4F8F4F9F4F0895A1E21A2EAA1BBB1B31
:10023000FD010DC0AA1FBB1FEE1FFF1FA217B307B2
:10024000E407F50720F0A21BB30BE40BF50B661FC8
:10025000771F881F991F1A9469F76095709580958C
:1002600090959B01AC01BD01CF010895F894FFCF9B
:1002700048656C6C6F20576F726C64210D0A00002A
:00000001FF
