:100000000C9434000C943E000C943E000C943E0082
:100010000C943E000C943E000C943E000C943E0068
:100020000C943E000C943E000C943E000C943E0058
:100030000C943E000C943E000C943E000C943E0048
:100040000C943E000C943E000C943E000C943E0038
:100050000C943E000C943E000C943E000C943E0028
:100060000C943E000C943E0011241FBECFEFD8E04C
:10007000DEBFCDBF0E94B0000C94CF000C940000F6
:10008000883090F421E030E0A90102C0440F551FF0
:100090008A95E2F7CA019AB1611104C0809589235B
:1000A0008AB90895892BFCCF28EF280F263078F4E1
:1000B00081E090E001C0880F2A95EAF794B16111C0
:1000C00004C08095892384B90895892BFCCF22EF41
:1000D000280F81E090E001C0880F2A95EAF797B1D8
:1000E000611104C08095892387B90895892BFCCFBD
:1000F000883090F421E030E0A90102C0440F551F80
:100100008A95E2F7CA019BB1611104C080958923E9
:100110008BB90895892BFCCF28EF280F263078F46F
:1001200081E090E001C0880F2A95EAF795B161114E
:1001300004C08095892385B90895892BFCCF22EFCF
:10014000280F81E090E001C0880F2A95EAF798B166
:10015000611104C08095892388B90895892BFCCF4B
:1001600061E08DE00E94400061E08DE00E94780037
:100170002FEF83ED90E3215080409040E1F700C0E5
:10018000000060E08DE00E9478002FEF83ED90E3A7
:10019000215080409040E1F700C00000E5CFF89486
:0201A000FFCF8F
:00000001FF
